:020000040000FA
:100000000A308A00C52A0000FF00030E8301A10008
:100010000A08A0008A010408A2007708A300780853
:10002000A4007908A5007A08A600831383120B1E8A
:100030001B288B1838288C308400801E21288C1AAD
:100040003B288C308400001C27280C183E282208EE
:1000500084002308F7002408F8002508F900260882
:10006000FA0020088A00210E8300FF0E7F0E09008F
:100070008A110A1225298A110A1242298A110A12A2
:10008000BF280A108A100A11820714340034AA34D7
:10009000C03455343F343134F734003480340034C4
:1000A0000034FF34FF34CE34083410341034E134DB
:1000B0000734043400340A108A100A11820701340C
:1000C0000034023400340334003404340034053482
:1000D0000034063400340734003408340034093462
:1000E00000340A3400340B3400340C3400340D3442
:1000F00000340E3400340F34003410340034113422
:100100000034123400341334003414340034153401
:1001100000341634003417340034183400341934E1
:1001200000341A3400341B3400341C3400341D34C1
:1001300000341E3400341F340034203400342134A1
:100140000034223400342334003424340034253481
:100150000034263400342734003428340034293461
:1001600000342A3400342B3400342C3400342D3441
:1001700000342E3400342F34003430340034101066
:100180003F1DF828FF308F00BE308E001014760817
:10019000273C031CDB284C30760784008313001CAB
:1001A000861300188617A030760784008313001C7E
:1001B000061300180617F60A7608293C031DE828DE
:1001C000BF1C8613BF188617BF1C0613BF1806175F
:1001D00076082A3C0318F728BF1C8613BF18861719
:1001E000BF1C0613BF18061710103F11F601212976
:1001F0008316630883128F008316620883128E00B1
:1002000010143F1C87123F188716BF1C8712BF1897
:100210008716F60A7608133C031C1B2906181229B8
:10022000031013290314C70DC80DC90D003006189B
:100230000130C4062129C5010618C50A1010BF15D2
:10024000F6010C108A110A1227280B1210108316BF
:100250005F0883128F0083165E0883128E001014CD
:100260003F11F601BF1C8711BF1887153F1C87126D
:100270003F188716BF1C8712BF1887168B108A116C
:100280000A12272874304207840083138C1E4629E3
:100290001A088000C20803196D2941082F3C031C6D
:1002A0005D290310410D103E84008317840A7508F0
:1002B00080008403740880006C2930304102F7000C
:1002C0000310F70D7708903E84008317840A7508A1
:1002D0008000840374088000C10A0130420701399C
:1002E000C2004108283C031D7729C101C2018C12BC
:1002F0008A110A1227280C1E7B2983160317490826
:100300008312031399008316981C84290930F7007F
:10031000F70B88298B2983120800C93084008317C2
:1003200000080319A0290630F800F701F70B9629F9
:10033000F80B95297B30F700F70B9C29800B93294C
:10034000080045084402031DA8290130C600A92958
:10035000C60148088316E500831247088316E400A7
:10036000E408031DBC296508103C031DBC290130AD
:100370008312C000082A831664080A3C031DC92999
:100380006508103C031DC92902308312C000082AE9
:1003900083166408053C031DD6296508103C031D1F
:1003A000D62903308312C000082A83166408A03CB3
:1003B000031DE3296508103C031DE3290430831263
:1003C000C000082A83166408503C031DF029650804
:1003D000103C031DF02905308312C000082A831643
:1003E00064085E3C031DFD296508103C031DFD29C2
:1003F00006308312C000082A831664085F3C031D80
:10040000092A6508103C031D092A07308312C00021
:10041000831683128A150A128E2B01308316031756
:10042000CA00CB00C9014908273C031C782A4908A7
:10043000053C031C342A4C304907F800FA01031824
:10044000FA0A7808CD007A08CE002D3049078400DA
:10045000831300084A06CF004D08840083134E180A
:1004600083174F088000582A4908253C031C512A4D
:100470000130490701390319472A03108312031376
:10048000CA0DCB0D83160317CC010318CC0A4C30D0
:100490004907840083134A084C0680004C08CB06A9
:1004A000582A4C304907840083134A084B068000C1
:1004B0000130CA06A0304907F800FA010318FA0A09
:1004C0007808CD007A08CE004C30490784008313A9
:1004D000800803196D2A00306E2A0130CF004D08C4
:1004E000840083134E1883174F088000C90A132A0B
:1004F0008312031308000B12F6013F150712FF3099
:100500008F00FA308E00101408008E30F70083162A
:1005100003174A08F8004908F900FA01F808031D12
:100520009B2A7908F800F9010830F702F808031D42
:100530009B2AF701A32A0310F81BA22AF90DF80D34
:10054000F7039B2AF813831203130800831603177B
:1005500049080319182BD1004D080319182BD1078E
:100560000318B92A7F30D102031C182B0319182B4A
:10057000BD2A8130D1070318182B5108F700F80164
:10058000F901FA014A08D500D5174B08D4004C08E8
:10059000D3001830D100D201531CE62A5008FA07C4
:1005A000031CD82AF90A031DD82AF80A0319D217FE
:1005B0004F08F907031CDF2AF80A0319D2174E085F
:1005C000CB00CB174B08F8070318D217D20DF80C45
:1005D000F90CFA0CD50CD40CD30C0310D10BCB2A8C
:1005E0000130F7070318182BF81BFD2AD50DFA0D5B
:1005F000F90DF80DF7030319182BD51F0E2BFA0A66
:10060000031D0E2BF90A031D0E2BF80A031D0E2BDA
:10061000F80CF90CFA0CF70A0319182B4A08D20047
:100620004E08D206D21F162BF8171C2BF8131C2BC2
:10063000F701F801F901FA018312031308008E3063
:10064000F700831603174908F7024A08F9004B0818
:10065000F800F917F7080319382B0310F908031DE0
:10066000342BF8080319382BF90CF80CF70B2D2B49
:10067000CA1F3F2BF809F909F80A0319F90A83126E
:10068000031308008030831C4A2B83160317CE0601
:100690008312031383160317D301D4014A08D2002F
:1006A0004E08D20649080319392CD100F7004D082D
:1006B0000319422CD1020319DE2B031C9C2B4E087C
:1006C000D700D7174F08D6005008D500D401031023
:1006D000D70CD60CD50CD40CD10B662BD21F732B98
:1006E0005314562C531051105316CC3084008317DA
:1006F0006B2C5312D21B862B511C912BD70CD60C72
:10070000D50CD40CF70A0319512C912BD71B942B21
:100710000310D40DD50DD60DD70DF7030319512CA9
:10072000862B5317FE2B53134A08D200D21F9A2B45
:10073000D7174A2CD7134A2C4D08D100F700490887
:10074000D1024A08D700D7174B08D6004C08D5006D
:10075000D4010310D70CD60CD50CD40CD10BA82B7C
:10076000D21FB52BD314562CD3105110D316D03022
:10077000840083176B2CD312D21BC82B511CD32B94
:10078000D70CD60CD50CD40CF70A0319512CD32B4B
:10079000D71BD62B0310D40DD50DD60DD70DF703CF
:1007A0000319512CC82BD317FE2BD3134E08D2009C
:1007B000D21FDC2BD7174A2CD7134A2C4E08D70050
:1007C000D7174F08D6005008D500D21FEB2BD713F0
:1007D0005315562C5311D4015110CC30840083177B
:1007E0006B2CD21B142C4A08D200511CFE2BD70CA8
:1007F000D60CD50CD40CF70A0319512CD41F0F2C8E
:10080000D50A031D0F2CD60A031D0F2CD70A031D72
:100810000F2CD70CD60CD50CF70A0319512C531BEF
:10082000932BD31BD52B332C8030D706D71F1C2CF2
:10083000562C4E08D200292C4A08D200D708031D96
:10084000292CD608031D292CD508031D292CF701B6
:100850004A2CD71B332C0310D40DD50DD60DD70D34
:10086000F70B292C512CD21F372CD7174A2CD71312
:100870004A2C4D08F7004E08D7004F08D600500804
:10088000D5004A2C4908F7004A08D7004B08D60083
:100890004C08D5005708F8005608F9005508FA002A
:1008A000892CF701F801F901FA01892CD401D50945
:1008B000D609D709D409D40A031D642CD50A031D0F
:1008C000642CD60A0319D70A5318722BD318B42BE9
:1008D0005319EA2B192C0008D507031C752CD60ACE
:1008E000031D752CD70A0319511484030008D60779
:1008F000031C7D2CD70A0319511484030008801FA0
:10090000803AD70703185114531A792BD31ABB2BEB
:10091000F12B83120313080083164F080317CA0034
:1009200003134E080317C9008312031385227A08A4
:10093000FE007908FD007808FC007708FB007E08BF
:1009400083160317CC007D08CB007C08CA007B0807
:10095000C900A430D0003630CF005130CE007C30FA
:10096000CD0083120313A6227A08FE007908FD0049
:100970007808FC007708FB007E0883160317CC007C
:100980007D08CB007C08CA007B08C900D001CF01DC
:100990002030CE008230CD0083120313A6227A08C5
:1009A00083160317CC007908CB007808CA007708B3
:1009B000C900831203131F2379088316CF00780818
:1009C000CE0051080317CA00031350080317C900CB
:1009D0008312031385227A08FE007908FD00780847
:1009E000FC007708FB007E0883160317CC007D0807
:1009F000CB007C08CA007B08C9008530D000B43029
:100A0000CF004630CE007830CD0083120313A622EB
:100A10007A08FE007908FD007808FC007708FB00E2
:100A20007E0883160317CC007D08CB007C08CA0023
:100A30007B08C900D001CF014830CE008530CD0001
:100A400083120313A6227A0883160317CC007908B1
:100A5000CB007808CA007708C900831203131F234C
:100A600079088316D1007808D00053080317CA000C
:100A7000031352080317C9008312031385227A084F
:100A8000FE007908FD007808FC007708FB007E086E
:100A900083160317CC007D08CB007C08CA007B08B6
:100AA000C9000A30D0002E30CF005630CE00793049
:100AB000CD0083120313A6227A08FE007908FD00F8
:100AC0007808FC007708FB007E0883160317CC002B
:100AD0007D08CB007C08CA007B08C900D001CF018B
:100AE0004830CE008530CD0083120313A6227A0849
:100AF00083160317CC007908CB007808CA00770862
:100B0000C900831203131F2379088316D3007808C2
:100B1000D20055080317CA00031354080317C9006D
:100B20008312031385227A08FE007908FD007808F5
:100B3000FC007708FB007E0883160317CC007D08B5
:100B4000CB007C08CA007B08C900D001CF01CE01D0
:100B50007F30CD0083120313A6227A08FE007908A5
:100B6000FD007808FC007708FB0083107E088316E0
:100B70000317CC007D08CB007C08CA007B08C900A5
:100B8000D001CF01CE01CD018312031342237A0895
:100B9000FE007908FD007808FC007708FB007E085D
:100BA00083160317CC007D08CB007C08CA007B08A5
:100BB000C900831203131F2379088316D500780810
:100BC000D40057080317CA00031356080317C900B7
:100BD0008312031385227A08FE007908FD00780845
:100BE000FC007708FB007E0883160317CC007D0805
:100BF000CB007C08CA007B08C900D001CF01CE0120
:100C00007F30CD0083120313A6227A08FE007908F4
:100C1000FD007808FC007708FB0083107E0883162F
:100C20000317CC007D08CB007C08CA007B08C900F4
:100C3000D001CF01CE01CD018312031342237A08E4
:100C4000FE007908FD007808FC007708FB007E08AC
:100C500083160317CC007D08CB007C08CA007B08F4
:100C6000C900831203131F2379088316D70078085D
:100C7000D6002830C90049082F3C031C6D2E0310F4
:100C8000490D103EF8000130FA000318FA0A7808FE
:100C90000317C9007A08CA00283003134902F70075
:100CA0000310F70D7708CE3E84008313840A0008F2
:100CB000FA00840300080317CB007A08CC00490827
:100CC000840083134A188317840A4C088000840325
:100CD0004B0880000313C90A3B2E83128A150A129F
:100CE000B12DB630F700FA01F901F80183160317A8
:100CF00049084A044B044C04031D802EF7018D2E35
:100D00000310F81B8C2EC90DCA0DCB0DCC0DFA0D9E
:100D1000F90DF80DF70B802EF8138312031308005A
:100D20008316031749080319572FD5004D080319D7
:100D3000572FD502031CA12E7F30D5070318572F3C
:100D4000A72E8130D502031C572F0319572F5508A2
:100D5000F700F801F901FA01D4014A08D300D317CA
:100D60004B08D2004C08D1001930D5005008D102F0
:100D70000318CA2E0130D2020318CA2ED302031858
:100D8000CA2ED4020318CA2ED40AD30AD20A500893
:100D9000D107FC2E4F08D2020318E52E0130D302F2
:100DA0000318E52ED4020318E52ED40AD30A4F08FF
:100DB000D2075008D107031CFC2ED20A031DFC2EBB
:100DC000D30A031DFC2ED40AFC2E4E088038D30211
:100DD0000318FB2E0130D4020318FB2ED40A4E0850
:100DE0008038D3074F08D207031CD92ED30A031D1E
:100DF000D92ED40AD92E7A14D50BFF2E0A2F031020
:100E0000D10DD20DD30DD40D0310FA0DF90DF80D3F
:100E1000D60DB62E561C122F0310F80CF90CFA0C36
:100E2000D60C152FF7030319572FD61B3E2F03108F
:100E3000D10DD20DD30DD40D5008D10203182A2F95
:100E40000130D20203182A2FD30203182A2FD4020A
:100E5000031C4D2F4F08D2020318352F0130D30247
:100E60000318352FD402031C4D2F4E088038D302AF
:100E700003183E2F0130D402031C4D2FFA0A031D24
:100E80004D2FF90A031D4D2FF80A031D4D2FF70AA8
:100E90000319572FF80CF90CFA0C4A08D5004E0824
:100EA000D506D51F552FF8175B2FF8135B2FF701C9
:100EB000F801F901FA01831203130800FF3FFF3F15
:100EC000FF3FFF3FFF3FFF3FFF3FFF3FFF3FFF3F32
:100ED000FF3FFF3FFF3FFF3FFF3FFF3FFF3FFF3F22
:100EE000FF3FFF3FFF3FFF3FFF3FFF3FFF3FFF3F12
:100EF000FF3FFF3FFF3FFF3FFF3FFF3FFF3FFF3F02
:100F0000FF3FFF3FFF3FFF3FFF3FFF3FFF3FFF3FF1
:100F1000FF3FFF3FFF3FFF3FFF3FFF3FFF3FFF3FE1
:100F2000FF3FFF3FFF3FFF3FFF3FFF3FFF3FFF3FD1
:100F3000FF3FFF3FFF3FFF3FFF3FFF3FFF3FFF3FC1
:100F4000FF3FFF3FFF3FFF3FFF3FFF3FFF3FFF3FB1
:100F5000FF3FFF3FFF3FFF3FFF3FFF3FFF3FFF3FA1
:100F6000FF3FFF3FFF3FFF3FFF3FFF3FFF3FFF3F91
:100F7000FF3FFF3FFF3FFF3FFF3FFF3FFF3FFF3F81
:100F8000FF3FFF3FFF3FFF3FFF3FFF3FFF3FFF3F71
:100F9000FF3FFF3FFF3FFF3FFF3FFF3FFF3FFF3F61
:100FA000FF3FFF3FFF3FFF3FFF3FFF3FFF3FFF3F51
:100FB000FF3FFF3FFF3FFF3FFF3FFF3FFF3FFF3F41
:100FC000FF3FFF3FFF3FFF3FFF3FFF3FFF3FFF3F31
:100FD000FF3FFF3FFF3FFF3FFF3FFF3FFF3FFF3F21
:100FE000FF3FFF3FFF3FFF3FFF3FFF3FFF3FFF3F11
:100FF000FF3FFF3FFF3FFF3FFF3FFF3FFF3FFF3F01
:101000000030F8001F08C33978049F001030F70043
:10101000F70B082800009F149F180C281E08FA00E0
:1010200083161E08CE007A08CF000430F800831221
:101030001F08C33978049F001030F700F70B1E28F3
:1010400000009F149F1822281E08FA0083161E080D
:10105000D0007A08D1000830F80083121F08C33985
:1010600078049F001030F700F70B342800009F141D
:101070009F1838281E08FA0083161E08D2007A0826
:10108000D3000C30F80083121F08C33978049F0086
:101090001030F700F70B4A2800009F149F184E28C5
:1010A0001E08FA0083161E080317B8077A080318EB
:1010B0007A0FB907003003180130BA07003003185F
:1010C0000130BB071030F800831203131F08C33927
:1010D00078049F001030F700F70B6C2800009F1475
:1010E0009F1870281E08FA0083161E080317BC07F5
:1010F0007A0803187A0FBD07003003180130BE07C5
:10110000003003180130BF072830F80083120313A2
:101110001F08C33978049F001030F700F70B8E28A2
:1011200000009F149F1892281E08FA0083161E08BC
:101130000317C0077A0803187A0FC1070030031895
:101140000130C207003003180130C3072030F80017
:10115000831203131F08C33978049F001030F7006F
:10116000F70BB02800009F149F18B4281E08FA003F
:1011700083161E080317C4077A0803187A0FC507D9
:10118000003003180130C607003003180130C707CC
:101190000313CD0AEF08031DB02A6E084D02031C8D
:1011A000B02A03173B08CC003A08CB003908CA0024
:1011B0003808C9008A118312031371268A157A0828
:1011C000FE007908FD007808FC007708FB00831614
:1011D0006F080317CA0003136E080317C9008A11AA
:1011E0008312031385228A157E0883160317CC0009
:1011F0007D08CB007C08CA007B08C9007A08D000B3
:101200007908CF007808CE007708CD008A118312C4
:10121000031390268A157A08FE007908FD007808E5
:10122000FC007708FB007E0883160317CC007D08BE
:10123000CB007C08CA007B08C900D001CF01483030
:10124000CE008530CD008A1183120313A6228A15A1
:101250007A08FE007908FD007808FC007708FB009A
:101260007E0883160317CC007D08CB007C08CA00DB
:101270007B08C9008A11831203131F238A1579087A
:101280008316D5007808D40003173F08CC003E0829
:10129000CB003D08CA003C08C9008A118312031321
:1012A00071268A157A08FE007908FD007808FC008E
:1012B0007708FB0083166F080317CA0003136E0834
:1012C0000317C9008A118312031385228A157E0829
:1012D00083160317CC007D08CB007C08CA007B086E
:1012E000C9007A08D0007908CF007808CE007708C6
:1012F000CD008A118312031390268A157A08FE0006
:101300007908FD007808FC007708FB007E0883164A
:101310000317CC007D08CB007C08CA007B08C900FD
:10132000D001CF014830CE008530CD008A11831224
:101330000313A6228A157A08FE007908FD007808B2
:10134000FC007708FB007E0883160317CC007D089D
:10135000CB007C08CA007B08C9008A1183120313E2
:101360001F238A1579088316D7007808D60003173B
:101370004308CC004208CB004108CA004008C9001D
:101380008A118312031371268A157A08FE007908E0
:10139000FD007808FC007708FB0083166F08031730
:1013A000CA0003136E080317C9008A1183120313BE
:1013B00085228A157E0883160317CC007D08CB0092
:1013C0007C08CA007B08C9007A08D0007908CF00E1
:1013D0007808CE007708CD008A1183120313902677
:1013E0008A157A08FE007908FD007808FC00770865
:1013F000FB007E0883160317CC007D08CB007C0819
:10140000CA007B08C900D001CF012030CE00823055
:10141000CD008A1183120313A6228A157A08FE00D2
:101420007908FD007808FC007708FB007E08831629
:101430000317CC007D08CB007C08CA007B08C900DC
:101440008A11831203131F238A1579088316D90082
:101450007808D80003174708CC004608CB00450899
:10146000CA004408C9008A118312031371268A1521
:101470007A08FE007908FD007808FC007708FB0078
:1014800083166F080317CA0003136E080317C900F9
:101490008A118312031385228A157E088316031787
:1014A000CC007D08CB007C08CA007B08C9007A0804
:1014B000D0007908CF007808CE007708CD008A11D7
:1014C0008312031390268A157A08FE007908FD001E
:1014D0007808FC007708FB007E0883160317CC0011
:1014E0007D08CB007C08CA007B08C900D001CF0171
:1014F0002030CE008230CD008A1183120313A62241
:101500008A157A08FE007908FD007808FC00770843
:10151000FB007E0883160317CC007D08CB007C08F7
:10152000CA007B08C9008A11831203131F238A157E
:1015300079088316DB007808DA000317BB01BA01CB
:10154000B901B801BF01BE01BD01BC01C301C201A7
:10155000C101C001C701C601C501C4010313CD010A
:101560002430F80083121F08C33978049F0010301C
:10157000F700F70BB92A000001308316DD00923026
:10158000DC0083128A150A12B32D840183131F30E5
:101590008305831603178711003003139900A230C7
:1015A00098009030831298003F14BF103F11BF1174
:1015B000C001C101C201FE01FD01FC01FB01F601F8
:1015C0008316CB01CC01CD01FF30DF00C330DE003C
:1015D000FF30E100BC30E000FF30E3004C30E200BF
:1015E000EF01C830EE000317BB01BA01B901B80121
:1015F000BF01BE01BD01BC01C301C201C101C001E7
:10160000C701C601C501C4010908C0398900031317
:101610001F129F1200300317880083128701880170
:10162000890101300313A700A801A900AA00AB019A
:10163000AC00AD01AE00AF01B001B100B201B30129
:10164000B401B501B600B700B800B900BA00BB00DC
:10165000BC01BD01BE01FF3083160317C8003F3037
:1016600003138600803087000317C800831203131A
:10167000BF11F601BF1C8613BF188617BF1C0613C7
:10168000BF180617BF1C0710BF180714BF1C871010
:10169000BF1887143F1C87113F1887153F1C07127E
:1016A0003F1807168B1083160C14C03083128B045E
:1016B00083168C1683120B168316011305308312C2
:1016C000900010101F179F1783169F1783121F1467
:1016D000831603170908C039890003131F129F12CC
:1016E0000F300317880083120313C101C201AA300F
:1016F00083160317C9008A11831203137B218A15ED
:10170000043083160317C9008A11831203138D2135
:101710008A15BF1DB22DBF118A11A1298A15C008D3
:101720000319902D400BCF2BBF1C8710BF188714B7
:10173000BF1C0710BF180714023083160317C90017
:101740008A11831203138D218A158316CA014A0850
:101750002F3C031CCD2B03104A0D103E8400831731
:10176000840A00080317CA0084030008C9004A0855
:1017700083120313CB00031083164A0D103E84001E
:10178000831700088312CA008A110D228A158A1154
:101790007B228A158316CA0AA72B8E2D8312400836
:1017A000023C031D162C3F1C87103F188714BF1CDA
:1017B0000710BF1807148316CB08031DE22BED0199
:1017C000EC01CC010130CB0002300317C9008A11B3
:1017D000831203138D218A158316CA014A082F3CF0
:1017E000031C142C03104A0D103E84008317840A36
:1017F00000080317CA0084030008C9004A088312BE
:101800000313CB00031083164A0D103E8400831788
:1018100000088312CA008A110D228A158A117B22C0
:101820008A158316CA0AEE2B8E2D83124008033CBC
:10183000031D5D2CBF1C8710BF1887143F1C0710A9
:101840003F1807148316CB08031D292CEB01EA016E
:10185000CC010130CB0002300317C9008A1183127A
:1018600003138D218A158316CA014A082F3C031CD5
:101870005B2C03104A0D103E84008317840A000875
:101880000317CA0084030008C9004A08831203131F
:10189000CB00031083164A0D103E84008317000806
:1018A0008312CA008A110D228A158A117B228A1599
:1018B0008316CA0A352C8E2D83124008043C031D62
:1018C000A42C3F1C87103F188714BF1C0710BF189B
:1018D00007148316CB08031D702CED01EC01CC011D
:1018E0000130CB0002300317C9008A1183120313A1
:1018F0008D218A158316CA014A082F3C031CA22C8D
:1019000003104A0D103E84008317840A0008031751
:10191000CA0084030008C9004A0883120313CB00DD
:10192000031083164A0D103E8400831700088312AB
:10193000CA008A110D228A158A117B228A15831604
:10194000CA0A7C2C8E2D83124008053C031DF42C02
:10195000BF1C8710BF1887143F1C07103F180714BF
:101960008316CB08031DB72CEB01EA01CC01013033
:10197000CB00CB08031DBF2CEB01EA01CC010130E9
:10198000CB0002300317C9008A11831203138D2183
:101990008A1528308316CA004A082F3C031CF22CF3
:1019A00003104A0D103E84008317840A00080317B1
:1019B000CA0084030008C9004A0883120313CB003D
:1019C000031083164A0D103E84008317000883120B
:1019D000CA008A110D228A158A117B228A15831664
:1019E000CA0ACC2C8E2D83124008063C031D422DC2
:1019F000023083160317C9008A11831203138D2145
:101A00008A158316CA014A080A3C031C402D03109C
:101A10004A0D0317C900490A8A1183120313412092
:101A20008A15FA008316031749088A1183120313D3
:101A300041208A1583160317C9007A08CA00831249
:101A40000313CB00031083164A0D0317C900490A7C
:101A50008A118312031341208A15FA008316031793
:101A600049088A118312031341208A15CA008A117A
:101A70000D228A158A117B228A158316CA0A032D24
:101A80008E2D83124008073C031D8F2D02308316D4
:101A90000317C9008A11831203138D218A15831637
:101AA000CA014A082F3C031C8E2D03104A0D031750
:101AB000C900490A8A11831203135B208A15FA00B0
:101AC0008316031749088A11831203135B208A15B2
:101AD00083160317C9007A08CA0083120313CB00C8
:101AE000031083164A0D0317C900490A8A1183128D
:101AF00003135B208A15FA008316031749088A111D
:101B0000831203135B208A15CA008A110D228A15DD
:101B10008A117B228A158316CA0A512D8312C001AD
:101B2000013083160317C9008A11831203138D2114
:101B30008A158B100B16C101C201AA308316031738
:101B4000C9008A11831203137B218A15043083167E
:101B50000317C9008A11831203138D218A158A1174
:101B60008C2C8A1500288719CD2D8316E60A0319B7
:101B7000E70A6708003C0318CC2DFF3A031DC42D6B
:101B80006608F43C0318CC2D83123F1C87113F18C4
:101B900087158316E701E6018312071AE72D8316DE
:101BA000E80A0319E90A6908003C0318E62DFF3A20
:101BB000031DDE2D6808F43C0318E62D83123F1C3C
:101BC00007123F1807168316E901E8018312871CE4
:101BD000022E8316EC0A0319ED0A6D08023C031865
:101BE000012EFF3A031DF82D6C08E83C0318012E66
:101BF000CC0AED01EC014C088C3C0318012ECB0102
:101C0000CC018312071C1D2E8316EA0A0319EB0A66
:101C10006B08023C03181C2EFF3A031D132E6A08A2
:101C2000E83C03181C2ECC0AEB01EA014C088C3C62
:101C300003181C2ECB01CC018312892B6300FF3FBC
:101C4000FF3FFF3FFF3FFF3FFF3FFF3FFF3FFF3FA4
:101C5000FF3FFF3FFF3FFF3FFF3FFF3FFF3FFF3F94
:101C6000FF3FFF3FFF3FFF3FFF3FFF3FFF3FFF3F84
:101C7000FF3FFF3FFF3FFF3FFF3FFF3FFF3FFF3F74
:04400E00E22FFF3F5F
:08400000FF3FFF3FFF3FFF3FC0
:00000001FF
