:020000040000FA
:1000000018308A0000280000FF00030E8301A100C1
:100010000A08A0008A010408A2007708A300780853
:10002000A4007908A5007A08A600831383120B1E8A
:100030001B288B1838288C308400801E21288C1AAD
:100040003B288C308400001C27280C183E282208EE
:1000500084002308F7002408F8002508F900260882
:10006000FA0020088A00210E8300FF0E7F0E09008F
:100070008A110A12F4288A110A1249288A110A12CE
:1000800000290A108A100A11820728340C3401341E
:1000900006348C1E49281A088316EE008312401C71
:1000A0008613401886178316ED08031D80286E08F6
:1000B000DE3C031D5E280230EF0080286E08DD3C28
:1000C000031D65280130EF0080286E08CD3C031D1C
:1000D0006C280330EF0080286E08CC3C031D732889
:1000E0000430EF0080286E08DC3C031D7A280630BF
:1000F000EF0080286E08DB3C031D80280730EF00EE
:10010000EF0803198A28CA306D07840083136E082C
:100110008000ED0A6D08073C0318ED28ED016F0B18
:10012000A6284C08F9004D08F8004E08F7004B08C7
:1001300083120317D2007908D1007808D00077081D
:10014000CF0001300313AA00EB2883166F08023C8E
:10015000031DB32802308312AA00FE01FD01FC0139
:10016000FB01EB2883166F08033C031DCA284C08CB
:10017000F9004D08F8004E08F7004B088312D40030
:100180007908D3007808D2007708D1000330AA009C
:10019000EB2883166F08063C031DE1284B088312E9
:1001A000CA0083164C088312C90083164D088312B7
:1001B000CC0083164E088312CB000430AA00EB2833
:1001C00083166F08073C031DEC288312B30A33081B
:1001D000023C031CB3018316EF010130EC008312D3
:1001E0008C128A110A1227280317C00A40080F3CF4
:1001F0000318FB28C00103138B108A110A12272849
:100200000B308F00DC308E000317C10A0130FB0772
:100210000318FC0A0319FD0A0319FE0A4108043CED
:100220000318FE29C10100300313061B0130831699
:1002300003179500003083120313C0180130831692
:1002400003171506F80078182A29831203130613DA
:1002500083160317781C312983120313061783169C
:100260000317FE08031D3E29FD08031D3E29FC0857
:10027000031D3E297B08143C0318442902308312D5
:100280000313AA00831603170B3083120313B50060
:10029000B50803197C290310350DA43EF800FA01B6
:1002A0000318FA0A78088316031795007A0896004F
:1002B0000130831203133502F7000310F70D77089E
:1002C000A43E84008313840A0008FA008403000813
:1002D0008316031797007A08980015088400831383
:1002E00016188317840A18088000840317088000F2
:1002F00083120313B5034829550803174F028316C9
:100300009500831250088316960083120313560833
:10031000031C560F8C29912983160317960283120A
:10032000031303175108831697008312031357080A
:10033000031C570F9C29A1298316031797028312C8
:1003400003130317520883169800831203135808E7
:10035000031C580FAC29B129831603179802831286
:100360000313831603171508F7001608F80017087B
:10037000F9001808FA00981FCF291508003CF7006B
:10038000F8011608031C160FF802F9011708031CE0
:10039000170FF902FA011808031C180FFA0278085F
:1003A0000313A5007708A400831203175208031350
:1003B000D800031751080313D7000317500803137D
:1003C000D60003174F080313D500F601F501B50158
:1003D00035080B3C031CFD290310350DA43E840099
:1003E0008313840A0008FA0084030008F5077A08DA
:1003F00003187A0FF607B50AE829031703130C1040
:100400008A110A122728C422502A481D00002010F1
:100410002010201020102010201000006D00532804
:10042000C522441D00012010201020102010201093
:1004300020102000ED17ED346E00D422CE29201DAF
:10044000000120102010201020102010201000018A
:10045000EB330001553A3A005600201020100001FD
:10046000493A3A00ED20000120100001D230771DFA
:10047000000120102010201020102010201000015A
:10048000C33765333A0020102010201020102010B0
:1004900020100001C4326C3A611D000120102010B0
:1004A00020102010201020100001C432703A681D66
:1004B000000120102010201020102010201000011A
:1004C000C1346E183A00201020100001C134EE181B
:1004D0003A00201020100001C1346E193A0020109B
:1004E00020100001C134EE193A0020102010000144
:1004F000C1346E1A3A00201020100001C134EE1AE7
:100500003A00201020100001C1346E1B3A00201068
:1005100020100001C134EE1B3A0020102010000012
:100520000C0061308400831700080319A42A0630E8
:10053000F800F701F70B9A2AF80B992A7B30F7009D
:10054000F70BA02A800B972A080003176818AC2A1B
:1005500003130812AE2A0317031308168316081292
:1005600083120317E818B82A03138812BA2A03174C
:100570000313881683168812831203176819C42A76
:1005800003130813C62A0317031308178316081347
:1005900083120317E819D02A03138813D22A0317EA
:1005A0000313881783168813000083120815831617
:1005B00008110330F700F70BDB2A831208118316AA
:1005C0000811831208000317E901831603130816A4
:1005D00000308312081A01300317E904831603134D
:1005E000881600308312881A0130F7000310F70DC7
:1005F00077080317E90483160313081700308312E2
:10060000081B0130F700F70DF70DFC30F7057708F0
:100610000317E90483160313881700308312881B1D
:100620000130F700F70DF70DF70DF830F7057708F3
:100630000317E9046908F80003130800081083167B
:10064000081008168816081788178312881483164E
:100650008810000083120815831608110000831209
:10066000E32278080317E800031308118316081122
:10067000000083120815831608113E2B3F2B000043
:100680008312E32278080317E70003130811831687
:100690000811081288120813881383120317680EB2
:1006A000F700F030F70577086704F8007808E700EE
:1006B000E71F5D2B83160313212BE508031D642B15
:1006C00003130810662B031703130814831608106E
:1006D000000083128810831688100000831208110E
:1006E0008316081183120317660EE7000F30E70523
:1006F0006708E8000313A522031766080F39E7000F
:10070000E8000313A52208008316081288120813B4
:100710008813081108108810831208108316081017
:10072000831288108316881083120811831608110B
:100730000F3083120317E1000313912201300317D6
:10074000D4005408033C031CB12B0330E80003130E
:10075000A52205300317E100031391220317D40AE1
:10076000A12B0230E8000313A5220317D40154087B
:10077000033C031CC82B5408031341200317D50066
:10078000E5015508E60003131E230317D40AB72B0F
:1007900003138A150A1689288316C301C201C308E8
:1007A000031DEC2B4208073C031CEC2BD8304207FE
:1007B00084008313431883174208831203178D00A4
:1007C00083168C130C1483120C08800083160313F9
:1007D000C20A0319C30ACF2B5908F9005A08F800B6
:1007E0005B08F700580883120317D2007908D1007C
:1007F0007808D0007708CF00831603135D08F9004E
:100800005E08F8005F08F7005C088312D4007908DE
:10081000D3007808D2007708D1008A150A169D28DF
:100820008E30F70003175608F8005508F900FA0152
:10083000F808031D252C7908F800F9010830F702A3
:10084000F808031D252CF7012D2C0310F81B2C2C68
:10085000F90DF80DF703252CF813031308000317FF
:1008600055080319A02CDD0059080319A02CDD0739
:100870000318412C7F30DD02031CA02C0319A02C8F
:10088000452C8130DD070318A02C5D08F700F80126
:10089000F901FA015608E100E1175708E00058088D
:1008A000DF001830DD00DE015F1C6E2C5C08FA07EB
:1008B000031C602CF90A031D602CF80A0319DE17CB
:1008C0005B08F907031C672CF80A0319DE175A089E
:1008D000D700D7175708F8070318DE17DE0DF80CF6
:1008E000F90CFA0CE10CE00CDF0C0310DD0B532CBF
:1008F0000130F7070318A02CF81B852CE10DFA0D29
:10090000F90DF80DF7030319A02CE11F962CFA0A34
:10091000031D962CF90A031D962CF80A031D962C2C
:10092000F80CF90CFA0CF70A0319A02C5608DE0093
:100930005A08DE06DE1F9E2CF817A42CF813A42CF0
:10094000F701F801F901FA01031308008030831C54
:10095000AC2C0317D90603130317DE01DF0155087A
:10096000DD005908DD06540803199A2DDC00F70054
:1009700058080319A32DDC0203193F2D031CFD2C7D
:100980005908E200E2175A08E1005B08E000DF01C5
:100990000310E20CE10CE00CDF0CDC0BC72CDD1FBC
:1009A000D42C5E14B72D5E105C105E165730840098
:1009B0008317CC2D5E12DD1BE72C5C1CF22CE20CA5
:1009C000E10CE00CDF0CF70A0319B22DF22CE21B4C
:1009D000F52C0310DF0DE00DE10DE20DF703031917
:1009E000B22DE72C5E175F2D5E135508DD00DD1F6D
:1009F000FB2CE217AB2DE213AB2D5808DC00F700FF
:100A00005408DC025508E200E2175608E1005708D6
:100A1000E000DF010310E20CE10CE00CDF0CDC0B6A
:100A2000092DDD1F162DDE14B72DDE105C10DE162D
:100A30005B3084008317CC2DDE12DD1B292D5C1C5E
:100A4000342DE20CE10CE00CDF0CF70A0319B22D97
:100A5000342DE21B372D0310DF0DE00DE10DE20D0B
:100A6000F7030319B22D292DDE175F2DDE13590868
:100A7000DD00DD1F3D2DE217AB2DE213AB2D590834
:100A8000E200E2175A08E1005B08E000DD1F4C2D90
:100A9000E2135E15B72D5E11DF015C105730840044
:100AA0008317CC2DDD1B752D5508DD005C1C5F2DDB
:100AB000E20CE10CE00CDF0CF70A0319B22DDF1F8A
:100AC000702DE00A031D702DE10A031D702DE20A4E
:100AD000031D702DE20CE10CE00CF70A0319B22D96
:100AE0005E1BF42CDE1B362D942D8030E206E21FB7
:100AF0007D2DB72D5908DD008A2D5508DD00E2084F
:100B0000031D8A2DE108031D8A2DE008031D8A2D8F
:100B1000F701AB2DE21B942D0310DF0DE00DE10D6D
:100B2000E20DF70B8A2DB22DDD1F982DE217AB2DAC
:100B3000E213AB2D5808F7005908E2005A08E1000B
:100B40005B08E000AB2D5408F7005508E20056089A
:100B5000E1005708E0006208F8006108F900600849
:100B6000FA00EA2DF701F801F901FA01EA2DDF0197
:100B7000E009E109E209DF09DF0A031DC52DE00AEA
:100B8000031DC52DE10A0319E20A5E18D32CDE18F5
:100B9000152D5E194B2D7A2D0008E007031CD62D6C
:100BA000E10A031DD62DE20A03195C148403000830
:100BB000E107031CDE2DE20A03195C14840300081C
:100BC000801F803AE20703185C145E1ADA2CDE1AE2
:100BD0001C2D522D03138A150A166829033003179A
:100BE0008D004F088C0083168C130C158312031391
:100BF0000B08F7008B138316031755308D00AA30AE
:100C00008D008C148C18022E0C117708831203139C
:100C10008B0403175008D5005108D6005208D7009E
:100C2000D80102308D0055088C0083168C130C15EA
:100C3000831203130B08F7008B1383160317553029
:100C40008D00AA308D008C148C18242E0C1177087E
:100C5000831203138B0403175108D5005208D600E2
:100C6000D701D80101308D0055088C0083168C13F4
:100C70000C15831203130B08F7008B13831603174D
:100C800055308D00AA308D008C148C18452E0C1117
:100C90007708831203138B0403175208D500D6017B
:100CA000D701D8018D0155088C0083168C130C15C3
:100CB000831203130B08F7008B13831603175530A9
:100CC0008D00AA308D008C148C18642E0C117708BE
:100CD000831203138B04073003178D00031351088D
:100CE00003178C0083168C130C15831203130B0847
:100CF000F7008B138316031755308D00AA308D0033
:100D00008C148C18812E0C117708831203138B041A
:100D100052080317D500031353080317D600031313
:100D200054080317D700D80106308D0055088C00F1
:100D300083168C130C15831203130B08F7008B1307
:100D40008316031755308D00AA308D008C148C1833
:100D5000A72E0C117708831203138B045308031773
:100D6000D500031354080317D600D701D801053066
:100D70008D0055088C0083168C130C1583120313F9
:100D80000B08F7008B138316031755308D00AA301C
:100D90008D008C148C18CA2E0C1177088312031343
:100DA0008B0454080317D500D601D701D8010430AD
:100DB0008D0055088C0083168C130C1583120313B9
:100DC0000B08F7008B138316031755308D00AA30DC
:100DD0008D008C148C18EA2E0C11770883120313E3
:100DE0008B04080020300317EC00E801E901EA0158
:100DF000EB016308FA006208F9006108F800600876
:100E0000F7000310771C122F6408E8076508031821
:100E1000650FE90766080318660FEA0767080318F5
:100E2000670FEB07EB0CEA0CE90CE80CFA0CF90C79
:100E3000F80CF70CEC0B012F03130800F701F80175
:100E4000F901FA01831603179001910192019301B0
:100E500083126D086C046B046A0403197B2F203025
:100E60008316940003108312E60DE70DE80DE90DDB
:100E70008316900D910D920D930D83126D088316BC
:100E80001302031D532F83126C0883161202031DD5
:100E9000532F83126B0883161102031D532F8312E5
:100EA0006A0883161002031C742F83126A088316C3
:100EB000900283126B08031C6B0F5F2F622F831647
:100EC000910283126C08031C6C0F672F6A2F831624
:100ED000920283126D08031C6D0F6F2F722F831601
:100EE0009302831203148316F70DF80DF90DFA0D12
:100EF000940B322F83129030840083170313080061
:100F0000F801F901F701FA0103176308031D8B2F9C
:100F100062080319A52F1030E4000310E00DE10D65
:100F2000F70DFA0D63087A02031D982F6208770205
:100F3000031CA12F6208F702031CFA036308FA02DC
:100F40000314F80DF90DE40B8D2F0313080008307E
:100F5000F8000317D7015608F7007708D706F70CF3
:100F6000F80BAD2F03130C1EB32FFE30831698051C
:100F700083120317571CC12F8316031318148312EF
:100F8000031756080313990008000317D4015408E7
:100F90002F3C031CD72F1030540784008317000800
:100FA000D500D6000313A7270317D40AC72FD401EF
:100FB0005408573C031CE22FD6010313A72703173D
:100FC000D40AD82FAA30D6000313A727AA300317B4
:100FD000D6000313A7278316811383128A150A16D6
:100FE000F529FF3FFF3FFF3FFF3FFF3FFF3FFF3F31
:100FF000FF3FFF3FFF3FFF3FFF3FFF3FFF3FFF3F01
:101000000317D501D401D701D601DD01DC01DF01D1
:10101000DE01DB01DA01DB08031DAA285A08133CB4
:10102000031CAA281830F80003131F08C7397804D6
:101030009F001030F700F70B1B2800001F151F1929
:101040001F281E08FA0083161E0883120317D800F3
:101050007A08D90055085902031C3828031D342882
:1010600058085402031838285908D5005808D400E5
:101070002030F80003131F08C73978049F00103090
:10108000F700F70B412800001F151F1945281E08FF
:10109000FA0083161E0883120317D8007A08D900B5
:1010A00057085902031C5E28031D5A285808560287
:1010B00003185E285908D7005808D6003030F800C9
:1010C00003131F08C73978049F001030F700F70B8F
:1010D000672800001F151F196B281E08FA008316C9
:1010E0001E0883120317DC077A0803187A0FDD073E
:1010F0003830F80003131F08C73978049F001030F8
:10110000F700F70B812800001F151F1985281E08FE
:10111000FA0083161E0883120317DE077A080318E5
:101120007A0FDF070430E000E530E1000330E10230
:10113000031CA42861308400831700080319A42825
:10114000A228A228800BA128E00B9428DA0A031910
:10115000DB0A0B280313E801E70103175508031303
:10116000E600031754080313E500EC01EB01031735
:1011700057080313EA00031756080313E900680829
:101180000317E300031367080317E200031366085D
:101190000317E100031365080317E000E701E60108
:1011A000031342080317E500031341080317E40083
:1011B0008A110313F2268A157A08E8007908E700F5
:1011C0007808E6007708E50068080317E9000313CC
:1011D00067080317E800031366080317E700031303
:1011E00065080317E600ED01EC010330EB00E83081
:1011F000EA008A1103131E278A157A08E800790885
:10120000E7007808E6007708E5006C080317E300BC
:1012100003136B080317E20003136A080317E100C6
:10122000031369080317E000E701E601031344080C
:101230000317E500031343080317E4008A1103139F
:10124000F2268A157A08EC007908EB007808EA00A3
:101250007708E9006C080317E90003136B0803170C
:10126000E80003136A080317E7000313690803176C
:10127000E600ED01EC010330EB00E830EA008A11F2
:1012800003131E278A157A08EC007908EB0078080A
:10129000EA007708E90003175D08E1005C08E00058
:1012A000E3011430E2008A11031380278A15F0014C
:1012B000EF017908EE007808ED0003175F08E10000
:1012C0005E08E000E3011430E2008A110313802776
:1012D0008A15F401F3017908F2007808F100740826
:1012E0000317E3007308E2007208E1007108E000F0
:1012F000E701E601031346080317E5000313450859
:101300000317E4008A110313F2268A157A08F40001
:101310007908F3007808F2007708F10074080317E1
:10132000E9007308E8007208E7007108E600ED01C3
:10133000EC010330EB00E830EA008A1103131E27AA
:101340008A157A08F4007908F3007808F200770823
:10135000F10070080317E30003136F080317E2009E
:1013600003136E080317E10003136D080317E00071
:10137000E701E601031348080317E50003134708D4
:101380000317E4008A110313F2268A157A08F00085
:101390007908EF007808EE007708ED007008031771
:1013A000E90003136F080317E80003136E0803171F
:1013B000E70003136D080317E600ED01EC010330AD
:1013C000EB00E830EA008A1103131E278A157A0819
:1013D000F0007908EF007808EE007708ED00680863
:1013E0007002031C0D2A031D052A67086F02031CE7
:1013F0000D2A031D052A66086E02031C0D2A031D13
:10140000052A6D08650203180D2A7008E8006F08A8
:10141000E7006E08E6006D08E5006C087402031C26
:101420002B2A031D232A6B087302031C2B2A031D7E
:10143000232A6A087202031C2B2A031D232A71081F
:10144000690203182B2A7408EC007308EB00720879
:10145000EA007108E9008A150A16F1290317620BE0
:10146000322A352A4030E300362AE3010130610296
:10147000E30763088038E400E5016408E6008A11A8
:1014800003131E238A150800031760080C3A031380
:101490000319512A063A0319612A023A0319692AE3
:1014A000722A0317E5010130E6008A1103131E2397
:1014B0008A1502300317E1008A11031391228A155D
:1014C0007C2A01300317E1000230E20003132E22D0
:1014D0007C2A0317E5011030E6008A1103131E234E
:1014E0008A157C2A01300317E5006008E6008A119E
:1014F00003131E238A157C2A0800831603178C17F2
:101500000C140000000083120C087F390319B52A5F
:10151000D5000D08D6000F08D7005508E0000313CA
:101520004422031756088D0057088F0083168C1726
:101530000C140000000083120C0D0E0D7F390319EE
:10154000B52AD5000D08D6000F08D7005508E000D1
:1015500003134422031756088D0057088F008D0A85
:1015600003198F0A03137D2A031703130800B630EB
:10157000F700FA01F901F80103175910D81FCE2A14
:101580005914D509D609D709D809D50A031DCE2A79
:10159000D60A031DCE2AD70A0319D80A55085604BD
:1015A00057045804031DD62AF701E52A0310F81B37
:1015B000E22AD50DD60DD70DD80DFA0DF90DF80D7F
:1015C000F70BD62AF8135918F81703130800031756
:1015D00055080319AD2BE10059080319AD2BE102A1
:1015E000031CF72A7F30E1070318AD2BFD2A813059
:1015F000E102031CAD2B0319AD2B6108F700F801C4
:10160000F901FA01E0015608DF00DF175708DE0094
:101610005808DD001930E1005C08DD020318202BBA
:101620000130DE020318202BDF020318202BE0021A
:101630000318202BE00ADF0ADE0A5C08DD07522BC4
:101640005B08DE0203183B2B0130DF0203183B2B43
:10165000E00203183B2BE00ADF0A5B08DE075C08A8
:10166000DD07031C522BDE0A031D522BDF0A031D6C
:10167000522BE00A522B5A088038DF020318512BF4
:101680000130E0020318512BE00A5A088038DF07C6
:101690005B08DE07031C2F2BDF0A031D2F2BE00A3C
:1016A0002F2B7A14E10B552B602B0310DD0DDE0D73
:1016B000DF0DE00D0310FA0DF90DF80DE20D0C2B06
:1016C000621C682B0310F80CF90CFA0CE20C6B2B63
:1016D000F7030319AD2BE21B942B0310DD0DDE0D78
:1016E000DF0DE00D5C08DD020318802B0130DE0207
:1016F0000318802BDF020318802BE002031CA32BAE
:101700005B08DE0203188B2B0130DF0203188B2BE2
:10171000E002031CA32B5A088038DF020318942B25
:101720000130E002031CA32BFA0A031DA32BF90AC4
:10173000031DA32BF80A031DA32BF70A0319AD2BD6
:10174000F80CF90CFA0C5608E1005A08E106E11F02
:10175000AB2BF817B12BF813B12BF701F801F901F6
:10176000FA010313080003175508B63CD500FA0127
:101770005608D900D6170310D60CD70CD80CFA0C83
:10178000F90CF80CF70CD50BBB2BD91FD22BF70992
:10179000F809F909FA09F70A0319F80A0319F90A05
:1017A0000319FA0A0313080003176108E900600827
:1017B000E8005F08E7005E08E6003B30ED009A3085
:1017C000EC00CA30EB00EA018A1103131E278A15C8
:1017D0007A080317E5007908E4007808E300770841
:1017E000E20062080313BF0003176108E900600804
:1017F000E8005F08E7005E08E6003B30ED009A3045
:10180000EC00CA30EB00EA018A1103131E278A1587
:1018100000080317E200840A0008E300840A0008B5
:10182000E400840A0008E5006508E9006408E800AF
:101830006308E7006208E6000530ED00F530EC00D3
:10184000E130EB00EA018A1103131E278A157A089A
:101850000317E5007908E4007808E3007708E20060
:1018600062080313BE0003176108E9006008E8007E
:101870005F08E7005E08E6000530ED00F530EC009B
:10188000E130EB00EA018A1103131E278A150008D4
:101890000317E200840A0008E300840A0008E40059
:1018A000840A0008E5006508E9006408E8006308A8
:1018B000E7006208E600ED019830EC009630EB009E
:1018C0008030EA008A1103131E278A157A0803174D
:1018D000E5007908E4007808E3007708E200620890
:1018E0000313BD0003176108E9006008E8005F0802
:1018F000E7005E08E600ED019830EC009630EB0062
:101900008030EA008A1103131E278A150008031786
:10191000E200840A0008E300840A0008E400840A64
:101920000008E5006508E9006408E8006308E700CE
:101930006208E600ED010F30EC004230EB00403071
:10194000EA008A1103131E278A157A080317E50097
:101950007908E4007808E3007708E20062080313DE
:10196000BC0003176108E9006008E8005F08E700B1
:101970005E08E600ED010F30EC004230EB00403035
:10198000EA008A1103131E278A1500080317E200D4
:10199000840A0008E300840A0008E400840A0008BE
:1019A000E5006508E9006408E8006308E7006208EC
:1019B000E600ED010130EC008630EB00A030EA00DB
:1019C0008A1103131E278A157A080317E500790880
:1019D000E4007808E3007708E20062080313BB0024
:1019E00003176108E9006008E8005F08E7005E0887
:1019F000E600ED010130EC008630EB00A030EA009B
:101A00008A1103131E278A1500080317E200840AAF
:101A10000008E300840A0008E400840A0008E500E6
:101A20006508E9006408E8006308E7006208E6006A
:101A3000ED01EC012730EB001030EA008A110313AE
:101A40001E278A157A080317E5007908E40078084C
:101A5000E3007708E20062080313BA000317610885
:101A6000E9006008E8005F08E7005E08E600ED01B5
:101A7000EC012730EB001030EA008A1103131E2717
:101A80008A1500080317E200840A0008E300840AAC
:101A90000008E400840A0008E5006508E90064081D
:101AA000E8006308E7006208E600ED01EC0103309E
:101AB000EB00E830EA008A1103131E278A157A0822
:101AC0000317E5007908E4007808E3007708E200EE
:101AD00062080313B90003176108E9006008E80011
:101AE0005F08E7005E08E600ED01EC010330EB0063
:101AF000E830EA008A1103131E278A15000803172D
:101B0000E200840A0008E300840A0008E400840A72
:101B10000008E5006508E9006408E8006308E700DC
:101B20006208E600ED01EC01EB016430EA008A1185
:101B300003131E278A157A080317E5007908E400C5
:101B40007808E3007708E20062080313B80003177F
:101B50006108E9006008E8005F08E7005E08E60049
:101B6000ED01EC01EB016430EA008A1103131E273A
:101B70008A1500080317E200840A0008E300840ABB
:101B80000008E400840A0008E5006508E90064082C
:101B9000E8006308E7006208E600ED01EC01EB01F4
:101BA0000A30EA008A1103131E278A157A080317E0
:101BB000E5007908E4007808E3007708E2006208AD
:101BC0000313B70003176108E9006008E8005F0825
:101BD000E7005E08E600ED01EC01EB010A30EA00E7
:101BE0008A1103131E278A150008B6000800031780
:101BF0005C08E1005B08E0005A08DF005908DE00DD
:101C00000313D42303175D08DE000313BE08031972
:101C1000102E30303E070317DF00E000031344228C
:101C2000BE08031D152E0030162E01300317DF00ED
:101C30000313BD08031D1E2E00301F2E0130031795
:101C40005F0403192C2E303003133D070317DF0008
:101C5000E0000313442203170313BE08031D322EB2
:101C60000030332E01300317DF000313BD08031DBE
:101C70003B2E00303C2E01300317DF040313BC0859
:101C8000031D442E0030452E013003175F04031955
:101C9000522E303003133C070317DF00E00003131C
:101CA000442203170313BE08031D582E0030592E7B
:101CB00001300317DF000313BD08031D612E003040
:101CC000622E01300317DF040313BC08031D6A2EC4
:101CD00000306B2E01300317DF040313BB08031D14
:101CE000732E0030742E013003175F040319812E08
:101CF000303003133B070317DF00E00003134422D7
:101D000003170313BE08031D872E0030882E0130F1
:101D10000317DF000313BD08031D902E0030912E22
:101D200001300317DF040313BC08031D992E003094
:101D30009A2E01300317DF040313BB08031DA22EE4
:101D40000030A32E01300317DF040313BA08031D6C
:101D5000AB2E0030AC2E013003175F040319B92EEF
:101D6000303003133A070317DF00E0000313442267
:101D700003170313BE08031DBF2E0030C02E013011
:101D80000317DF000313BD08031DC82E0030C92E42
:101D900001300317DF040313BC08031DD12E0030EC
:101DA000D22E01300317DF040313BB08031DDA2E04
:101DB0000030DB2E01300317DF040313BA08031DC4
:101DC000E32E0030E42E01300317DF040313B908BB
:101DD000031DEC2E0030ED2E01300317DF045E08EA
:101DE000033C0319F52E0030F62E01305F04031971
:101DF0000B2F3030031339070317DF00E000031304
:101E0000442203175E08033C031D0B2F2E30E00015
:101E10000313442203170313BE08031D112F0030C0
:101E2000122F01300317DF000313BD08031D1A2F03
:101E300000301B2F01300317DF040313BC08031D00
:101E4000232F0030242F01300317DF040313BB08B6
:101E5000031D2C2F00302D2F01300317DF04031337
:101E6000BA08031D352F0030362F01300317DF0469
:101E70000313B908031D3E2F00303F2F0130031715
:101E8000DF040313B808031D472F0030482F01302B
:101E90000317DF045E08023C0319502F0030512F56
:101EA00001305F040319662F30300313380703171E
:101EB000DF00E0000313442203175E08023C031D09
:101EC000662F2E30E0000313442203170313B908D2
:101ED000031D6C2F00306D2F01300317DF0003133B
:101EE000B808031D752F0030762F01300317DF046B
:101EF0000313B708031D7E2F00307F2F0130031717
:101F0000DF045E0B842F862F0030872F01305F04A3
:101F100003199A2F3030031337070317DF00E0004F
:101F20000313442203175E0B9A2F2E30E000031395
:101F3000442203173030031336070317DF00E00095
:101F400003134422080003175C08E1005B08E0006B
:101F50005A08DF005908DE000313D42330303F074E
:101F60000317DD00E0000313442230303E0703175F
:101F7000DD00E0000313442230303D070317DD008D
:101F8000E0000313442230303C070317DD00E0007B
:101F90000313442230303B070317DD00E000031336
:101FA000442230303A070317DD00E00003134422D7
:101FB000303039070317DD00E000031344223030CE
:101FC00038070317DD00E0000313442230303707E1
:101FD0000317DD00E00003134422303036070317F7
:101FE000DD00E000031344220800FF3FFF3FFF3FF6
:101FF000FF3FFF3FFF3FFF3FFF3FFF3FFF3FFF3FF1
:102000000317D408031DF92A0130E100E2000A1287
:102010008A1503132E220A168A11033003178D0026
:1020200002308F000A128A1503137D220A168A11C4
:10203000073003178D0002308F000A128A15031330
:102040007D220A168A1107300317E1000130E200F1
:102050000A128A1503132E220A168A110317D21F99
:102060003A282D30E0000A128A15031344220A167A
:102070008A1103174F08F7005008F8005108F900BB
:102080005208FA00D21F56284F08003CF700F8010A
:102090005008031C500FF802F9015108031C510F9E
:1020A000F902FA015208031C520FFA027A08D8000A
:1020B0007908D7007808D6007708D5000A128A1563
:1020C0000313B7220A168A117A080317C600790883
:1020D000C5007808C4007708C30003135408031729
:1020E000D800031353080317D7000313520803172C
:1020F000D600031351080317D5000A128A150313DB
:10210000B7220A168A1103174608D8004508D700D7
:102110004408D6004308D5007A08DC007908DB00C3
:102120007808DA007708D9000A128A150313E72223
:102130000A168A117A080317C6007908C5007808BC
:10214000C4007708C3004608D8004508D7004408F3
:10215000D6004308D500DC01DB014830DA008530C9
:10216000D9000A1203132F240A167A080317C6008F
:102170007908C5007808C4007708C3004608D8006D
:102180004508D7004408D6004308D5000A128A152E
:102190000313B3230A168A117A080317D8007908A3
:1021A000D7007808D6007708D5005808DC00570813
:1021B000DB005608DA005508D9000130DD000A12AC
:1021C0008A150313F7250A168A110E3003178D009E
:1021D00002308F000A128A1503137D220A168A1113
:1021E00001300317E1000230E2000A128A150313DE
:1021F0002E220A168A110F3003178D0002308F002D
:102200000A128A1503137D220A168A111330031746
:102210008D0002308F000A128A1503137D220A16E0
:102220008A1107300317E1000230E2000A128A1512
:1022300003132E220A168A1176080317D600750892
:10224000D5000A12031310240A167A080317CE00C9
:102250007908CD007808CC007708CB000313540828
:102260000317D800031353080317D70003135208AA
:102270000317D600031351080317D5000A128A1555
:102280000313B7220A168A1103174E08D8004D0807
:10229000D7004C08D6004B08D5007A08DC00790836
:1022A000DB007808DA007708D9000A128A150313D0
:1022B000E7220A168A117A080317CE007908CD00A2
:1022C0007808CC007708CB004E08D8004D08D7001E
:1022D0004C08D6004B08D500DC01DB017A30DA006F
:1022E0008830D9000A1203132F240A167A0803171C
:1022F000CE007908CD007808CC007708CB004E08D6
:10230000D8004D08D7004C08D6004B08D5000A125B
:102310008A150313B3230A168A117A080317D80003
:102320007908D7007808D6007708D5005808DC006F
:102330005708DB005608DA005508D9000130DD00E7
:102340000A128A150313F7250A168A111A30031781
:102350008D0002308F000A128A1503137D220A169F
:102360008A1115300317E1000130E2000A128A15C4
:1023700003132E220A168A111D3003178D00023016
:102380008F000A128A1503137D220A168A11213042
:1023900003178D0002308F000A128A1503137D2265
:1023A0000A168A111B300317E1000130E2000A12FD
:1023B0008A1503132E220A168A1103174A08D80019
:1023C0004908D7004808D6004708D5000A128A15E0
:1023D0000313B3230A168A117A080317D800790861
:1023E000D7007808D6007708D5005808DC005708D1
:1023F000DB005608DA005508D900DD010A128A15FB
:102400000313F7250A168A11283003178D000230AE
:102410008F000A128A1503137D220A168A11831669
:102420003F084102031C312A031D1A2A40083E02BC
:102430000318312A273083120317E1000130E2002C
:102440000A128A1503132E220A168A112A3003173C
:10245000E0000A128A15031344220A168A11462A3A
:102460008316273083120317E1000130E2000A12BD
:102470008A1503132E220A168A1120300317E00052
:102480000A128A15031344220A168A1115300317FB
:10249000E1000230E2000A128A1503132E220A1606
:1024A0008A112A3003178D0002308F000A128A1514
:1024B00003137D220A168A1170086802031C892AF8
:1024C000031D722A6F086702031C892A031D722AE2
:1024D0006E086602031C892A031D722A65086D02B4
:1024E0000318892A68080317DC0003136708031719
:1024F000DB00031366080317DA00031365080317EC
:10250000D900DD010A128A150313F7250A168A116C
:102510009F2A70080317DC0003136F080317DB0002
:1025200003136E080317DA0003136D080317D900AD
:10253000DD010A128A150313F7250A168A112C30B9
:1025400003178D0002308F000A128A1503137D22B3
:102550000A168A112D3003178D0002308F000A12DF
:102560008A1503137D220A168A111F300317E10012
:102570000230E2000A128A1503132E220A168A116B
:10258000303003178D0002308F000A128A150313B2
:102590007D220A168A116C080317DC0003136B08EE
:1025A0000317DB0003136A080317DA000313690833
:1025B0000317D900DD010A128A150313F7250A163D
:1025C0008A11323003178D0002308F000A128A15EB
:1025D00003137D220A168A11343003178D0002304E
:1025E0008F000A128A1503137D220A168A11742E8F
:1025F0000317540B682C0130E100E2000A128A151F
:1026000003132E220A168A11363003178D0002306A
:102610008F000A128A1503137D220A168A11393097
:1026200003178D0002308F000A128A1503137D22D2
:102630000A168A1105300317E1000130E2000A1280
:102640008A1503132E220A168A11DC1F302B2D3017
:102650000317E0000A128A15031344220A168A118E
:102660005908F7005A08F8005B08F9005C08FA00FE
:10267000DC1F4C2B5908003CF700F8015A08031CDA
:102680005A0FF802F9015B08031C5B0FF902FA010B
:102690005C08031C5C0FFA027A080317D80079085B
:1026A000D7007808D6007708D5005808DC0057080E
:1026B000DB005608DA005508D9000A128A15031300
:1026C000A3270A168A1101300317E1000230E20045
:1026D0000A128A1503132E220A168A114030031794
:1026E0008D0002308F000A128A1503137D220A160C
:1026F0008A11433003178D0002308F000A128A15A9
:1027000003137D220A168A1106300317E1000230F6
:10271000E2000A128A1503132E220A168A1154089F
:102720000317DC00031353080317DB0003135208DD
:102730000317DA00031351080317D9000130DD0035
:102740000A128A150313F7250A168A111530031782
:10275000E1000130E2000A128A1503132E220A1644
:102760008A114A3003178D0002308F000A128A1531
:1027700003137D220A168A114E3003178D00023092
:102780008F000A128A1503137D220A168A111B3044
:102790000317E1000130E2000A128A1503132E220A
:1027A0000A168A11E21FDD2B2D300317E0000A12F2
:1027B0008A15031344220A168A116208FA00610876
:1027C000E21FEB2B6108003CF700FA016208031CD2
:1027D000620FFA0277080317D5007A08D600DC01E9
:1027E000DB015608DA005508D900DD010A128A1506
:1027F0000313F7250A168A1115300317E10002307A
:10280000E2000A128A1503132E220A168A11553085
:1028100003178D0002308F000A128A1503137D22E0
:102820000A168A11593003178D0002308F000A12E0
:102830008A1503137D220A168A111B300317E10043
:102840000230E2000A128A1503132E220A168A1198
:102850000317D21F342C2D30E0000A128A150313FF
:1028600044220A168A1103174F08F7005008F8008F
:102870005108F9005208FA00D21F502C4F08003CB2
:10288000F700F8015008031C500FF802F901510835
:10289000031C510FF902FA015208031C520FFA02ED
:1028A0007A08D8007908D7007808D6007708D500CC
:1028B0005808DC005708DB005608DA005508D90034
:1028C0000A128A150313A3270A168A11742E0317F6
:1028D0005408023C031D752E0130E100E2000A128B
:1028E0008A1503132E220A168A11603003178D00F1
:1028F00002308F000A128A1503137D220A168A11EC
:10290000633003178D0002308F000A128A150313FB
:102910007D220A168A1106300317E1000130E20019
:102920000A128A1503132E220A168A110317DC01D4
:10293000DB0183160313450883120317DA0083169D
:102940000313440883120317D900DD010A128A1504
:102950000313F7250A168A1101300317E10002302C
:10296000E2000A128A1503132E220A168A11663013
:1029700003178D0002308F000A128A1503137D227F
:102980000A168A11693003178D0002308F000A126F
:102990008A1503137D220A168A1106300317E100F7
:1029A0000230E2000A128A1503132E220A168A1137
:1029B0000317DC01DB01831603134108831203179D
:1029C000DA0083160313400883120317D900DD01D0
:1029D0000A128A150313F7250A168A1115300317F0
:1029E000E1000130E2000A128A1503132E220A16B2
:1029F0008A116C3003178D0002308F000A128A157D
:102A000003137D220A168A116F3003178D000230DE
:102A10008F000A128A1503137D220A168A111A30B2
:102A20000317E1000130E2000A128A1503132E2277
:102A30000A168A110317DC01DB01831603133F0812
:102A400083120317DA00831603133E088312031759
:102A5000D900DD010A128A150313F7250A168A1117
:102A600015300317E1000230E2000A128A15031341
:102A70002E220A168A11723003178D0002308F0041
:102A80000A128A1503137D220A168A11753003175C
:102A90008D0002308F000A128A1503137D220A1658
:102AA0008A111A300317E1000230E2000A128A1577
:102AB00003132E220A168A1168080317DC00031379
:102AC00067080317DB00031366080317DA00031314
:102AD00065080317D900DD010A128A150313F725CB
:102AE0000A168A110A300317E1000130E2000A12C7
:102AF0008A1503132E220A168A11783003178D00C7
:102B000002308F000A128A1503137D220A168A11D9
:102B10007B3003178D0002308F000A128A150313D1
:102B20007D220A168A110F300317E1000130E200FE
:102B30000A128A1503132E220A168A116C0803172B
:102B4000DC0003136B080317DB0003136A08031789
:102B5000DA00031369080317D900DD010A128A1588
:102B60000313F7250A168A110A300317E100023011
:102B7000E2000A128A1503132E220A168A117E30E9
:102B800003178D0002308F000A128A1503137D226D
:102B90000A168A11813003178D0002308F000A1245
:102BA0008A1503137D220A168A110F300317E100DC
:102BB0000230E2000A128A1503132E220A168A1125
:102BC0000317DC01DB01831603133D08831203178F
:102BD000DA00831603133C0883120317D900DD01C2
:102BE0000A128A150313F7250A168A111E300317D5
:102BF000E1000130E2000A128A1503132E220A16A0
:102C00008A11843003178D0002308F000A128A1552
:102C100003137D220A168A11873003178D000230B4
:102C20008F000A128A1503137D220A168A11233097
:102C30000317E1000130E2000A128A1503132E2265
:102C40000A168A1170080317DC0003136F080317B4
:102C5000DB0003136E080317DA0003136D08031774
:102C6000D900DD010A128A150313F7250A168A1105
:102C70001E300317E1000230E2000A128A15031326
:102C80002E220A168A118A3003178D0002308F0017
:102C90000A128A1503137D220A168A118D30031732
:102CA0008D0002308F000A128A1503137D220A1646
:102CB0008A1123300317E1000230E2000A128A155C
:102CC00003132E220A168A1174080317DC007308F6
:102CD000DB007208DA007108D900DD010A128A15DA
:102CE0000313F7250A168A11031703138A150A1608
:102CF0002D2AFF3FFF3FFF3FFF3FFF3FFF3FFF3FCB
:102D0000FF3FFF3FFF3FFF3FFF3FFF3FFF3FFF3FD3
:102D1000FF3FFF3FFF3FFF3FFF3FFF3FFF3FFF3FC3
:102D2000FF3FFF3FFF3FFF3FFF3FFF3FFF3FFF3FB3
:102D3000FF3FFF3FFF3FFF3FFF3FFF3FFF3FFF3FA3
:10300000840183131F308305043083169900E63052
:103010009800D03083129800A701AA01AB01AC013F
:10302000AD010830B200B3010130B4004010C0144B
:10303000C2000830C1000530C4003B30C300053079
:10304000C6000D30C5000230C800E030C700CA011C
:103050000130C900CC01CB01D401D3014C30D200E6
:10306000E530D100DC01DB01DA01D901E201E10147
:10307000FE01FD01FC01FB018316C701C601EC0145
:10308000ED01EF0183120317C001C101C201D2019A
:10309000D101D001CF01831603131F149F141F15F4
:1030A0009F1107309C00FF3083120317D3001A30A2
:1030B0008316031386008113FF30850000308800DB
:1030C0008030870083120317D300831603138C16F6
:1030D0000C14C03083128B0483161F1383121F1726
:1030E0009F1783169F1783121F1483161F109F109C
:1030F0001F119F11B530831290000B308F00DB3011
:103100008E001014C01C0610C01806140A128A1172
:10311000842B0A168A15B301113003178D0083160C
:103120008C130C1483120C080313B0003008023CFB
:10313000031DA0280A128A11CC2B0A168A15A6286C
:103140000317D201D101D001CF0103130030F800E1
:103150001F08C73978049F001030F700F70BAE281E
:1031600000001F151F19B2281E08FA0083161E083A
:10317000C4007A08C5000830F80083121F08C73958
:1031800078049F001030F700F70BC42800001F15CB
:103190001F19C8281E08FA0083161E08C0007A08E6
:1031A000C1001030F80083121F08C73978049F004F
:1031B0001030F700F70BDA2800001F151F19DE2862
:1031C0001E08FA0083161E08BE007A08BF002830C9
:1031D000F80083121F08C73978049F001030F700E9
:1031E000F70BF02800001F151F19F4281E08FA001D
:1031F00083161E08BC007A08BD0045088312031719
:10320000D60083160313440883120317D5000A124D
:103210008A11031310240A168A157A080317CA00A4
:103220007908C9007808C8007708C70003134A085E
:103230000317D600031349080317D5000A128A1191
:10324000031310240A168A1503174A08D8004908E0
:10325000D7004808D6004708D5007A08DC0079086E
:10326000DB007808DA007708D9000A128A11031304
:103270002F240A168A157A080317CA007908C9008C
:103280007808C8007708C70003134C080317D60056
:1032900003134B080317D5000A128A1103131024D5
:1032A0000A168A15831003174A08D7004908D60062
:1032B0004808D5004708D4007A08DB007908DA000E
:1032C0007808D9007708D8000A128A110313A62CAF
:1032D0000A168A157A080317CA007908C9007808FF
:1032E000C8007708C70003132A0B9829AA011130D8
:1032F00003178D0002308C0083168C130C1583127B
:1033000003130B08F7008B138316031755308D003A
:10331000AA308D008C148C188B290C11770883121D
:1033200003138B040A128A11EE250A168A151F2A26
:103330002A08023C031DFA29AA01C01C8613C018E2
:103340008617401C0611401806158316C301C201DA
:10335000C308031DCC2942080F3C031CCC2983124F
:10336000401C0610401806145330F700F70BB6291E
:103370008618BC290310BD290314E30DE40DC01CFD
:103380000610C01806145330F700F70BC529831632
:10339000C20A0319C30AA8298312C01C0611C01847
:1033A00006156408E2006308E1006108F70062089E
:1033B000F800F901FA01E21FDF29F903FA0377089F
:1033C0000317CF0778080318780FD0077908031878
:1033D000790FD1077A0803187A0FD2070A1203135C
:1033E00000280A160A128A11C52F0A168A150130FA
:1033F000B4001F2A2A08033C031D1F2AAA0111300A
:1034000003178D0002308C0083168C130C15831269
:1034100003130B08F7008B138316031755308D0029
:10342000AA308D008C148C18132A0C117708831283
:1034300003138B040A128A11EE250A168A15031744
:10344000C108031D302A0313B40803192F2A3308B7
:103450000317D4008A11031300288A15B401031737
:1034600083160313C60A0319C70AC708031D3C2A9B
:103470004608323C0318412AC701C6018312A7013E
:1034800083168312A708031D6A2A86195C2AB30AC9
:10349000903003178D0002308F000A1203137D2233
:1034A0000A163308023C031CB3018316C701C60188
:1034B00001308312A7006A2A061A6A2A0317D2016A
:1034C000D101D001CF0183160313C701C60101301A
:1034D0008312A7008316C80A0319C90A4908003CC9
:1034E00003187B2AFF3A031D792A48082B3C03184E
:1034F0007B2AC901C801831203174608D800450872
:10350000D7004408D6004308D5000A120313B3239A
:103510000A167A080317D7007908D6007808D5006C
:103520007708D4005708E1005608E0005508DF008E
:103530005408DE000A120313D4230A1636080317B0
:103540009100031337080317920003133808031779
:103550009300031339080317940003133A08031761
:10356000950003133B0803179600E101E001831661
:103570000313450883120317DF008316031344085F
:1035800083120317DE000A120313D4230A16360827
:10359000031797000313370803179800031338081D
:1035A000031799000313390803179A0003133A0805
:1035B00003179B004E08D8004D08D7004C08D600D2
:1035C0004B08D5000A120313B3230A167A0803170F
:1035D000D7007908D6007808D5007708D4005708B6
:1035E000E1005608E0005508DF005408DE000A122A
:1035F0000313D4230A16360803179C000313370855
:1036000003179D000313380803179E00031339089E
:1036100003179F004F08A0005008A1005108A20006
:103620005208A30083160313440883120317A4004F
:1036300083160313450883120317A500831603138B
:10364000400883120317A600831603134108831250
:103650000317A700031365080317A80003136608E0
:103660000317A900031369080317AA0003136A08C4
:103670000317AB00831603133C0883120317AC0037
:10368000831603133D0883120317AD0003136D085F
:103690000317AE0003136E080317AF00031361088E
:1036A0000317B000031362080317B1007508B200D6
:1036B0007608B300B401B501031359080317B60027
:1036C00003135A080317B70003135B080317B80066
:1036D00003135C080317BA007108BB007208BC0032
:1036E0000313A6286300FF3FFF3FFF3FFF3FFF3F5D
:1036F000FF3FFF3FFF3FFF3FFF3FFF3FFF3FFF3FDA
:10370000FF3FFF3FFF3FFF3FFF3FFF3FFF3FFF3FC9
:10371000FF3FFF3FFF3FFF3FFF3FFF3FFF3FFF3FB9
:10372000FF3FFF3FFF3FFF3FFF3FFF3FFF3FFF3FA9
:104200000000000000000000000000004D000D0054
:10421000FF00FF00FF00FF00FF00FF00FF00FF00A6
:10422000FF000200FF00FF00FF00FF00FF00FF0093
:10423000FF00FF00FF00FF00FF00FF00FF00FF0086
:10424000FF00FF00FF00FF00FF00FF00FF00FF0076
:10425000FF00FF00FF00FF00FF00FF00FF00FF0066
:10426000FF00FF00FF00FF00FF00FF00FF00FF0056
:10427000FF00FF00FF00FF00FF00FF00FF00FF0046
:10428000FF00FF00FF00FF00FF00FF00FF00FF0036
:10429000FF00FF00FF00FF00FF00FF00FF00FF0026
:1042A000FF00FF00FF00FF00FF00FF00FF00FF0016
:1042B000FF00FF00FF00FF00FF00FF00FF00FF0006
:1042C000FF00FF00FF00FF00FF00FF00FF00FF00F6
:1042D000FF00FF00FF00FF00FF00FF00FF00FF00E6
:1042E000FF00FF00FF00FF00FF00FF00FF00FF00D6
:1042F000FF00FF00FF00FF00FF00FF00FF00FF00C6
:10430000FF00FF00FF00FF00FF00FF00FF00FF00B5
:10431000FF00FF00FF00FF00FF00FF00FF00FF00A5
:10432000FF00FF00FF00FF00FF00FF00FF00FF0095
:10433000FF00FF00FF00FF00FF00FF00FF00FF0085
:10434000FF00FF00FF00FF00FF00FF00FF00FF0075
:10435000FF00FF00FF00FF00FF00FF00FF00FF0065
:10436000FF00FF00FF00FF00FF00FF00FF00FF0055
:10437000FF00FF00FF00FF00FF00FF00FF00FF0045
:10438000FF00FF00FF00FF00FF00FF00FF00FF0035
:10439000FF00FF00FF00FF00FF00FF00FF00FF0025
:1043A000FF00FF00FF00FF00FF00FF00FF00FF0015
:1043B000FF00FF00FF00FF00FF00FF00FF00FF0005
:1043C000FF00FF00FF00FF00FF00FF00FF00FF00F5
:1043D000FF00FF00FF00FF00FF00FF00FF00FF00E5
:1043E000FF00FF00FF00FF00FF00FF00FF00FF00D5
:1043F000FF00FF00FF00FF00FF00FF00FF00FF00C5
:02400E00723FFF
:08400000FF3FFF3FFF3FFF3FC0
:00000001FF
