:020000040000FA
:1000000003308A00622B0000FF00030E8301A10071
:100010000A08A0008A010408A2007708A300780853
:10002000A4007908A5007A08A600831383128B1D0B
:100030001B280B183C280B1E1F288B183F288C30C0
:100040008400801E25288C1A42288C308400001CD5
:100050002B280C184528220884002308F7002408C0
:10006000F8002508F9002608FA0020088A00210E69
:100070008300FF0E7F0E09008A110A12A6298A1139
:100080000A1248288A110A124F298A110A1268286E
:10009000FB01FC08031964280B1210108316670873
:1000A00083128F008316660883128E001014C1100D
:1000B000411C861341188617C01F8611C01B861568
:1000C000411C8611411886158B108A110A122B28A3
:1000D0001010C11C9F2883166B0883128F00831693
:1000E0006A0883128E0010147B08273C031C8828A2
:1000F00042307B0784008313001C0611001806158C
:10010000A0307B0784008313001C8610001886141F
:100110007B08283C031D9428411C86104118861436
:10012000411C0611411806157B082A3C03189D281E
:100130001010C110FB018B100B16FB0A4B29831604
:10014000650883128F008316640883128E001014D2
:10015000C01F8611C01B8615411C861141188615CB
:10016000FB0A7B08103C031CD8280030061801301D
:1001700083160317C000003083120313C01B013025
:10018000831603174006FD00FD08031DC928031050
:10019000CA28031483120313EC0DED0DEE0D00308D
:1001A000C01901307D06F800C0117818C0153D292E
:1001B00040120618401610104014FB016C08F100A4
:1001C0006D08F200F701401AF71540087706083964
:1001D000031DEC28C016ED28C01272088316E30038
:1001E0007108E200D308031D092952082F3C031CA3
:1001F00009290310520DF900530DFA007908103E39
:1002000084008317840A63088000840362088000E6
:100210002529303052020317C00003135308031777
:10022000C1000030031C0130C1020310400DF90071
:10023000410DFA007908903E84008317840A031365
:1002400063088000840362088000D20A0319D30A7D
:10025000D308031D2F297C085202031C3529831261
:10026000C0148316D301D201FC01A630F700F70BAE
:100270003729000083128B100B1683164808383C70
:100280000319462948083D3C031D4A296D08E7002B
:100290006C08E60083120C108A110A122B288C1E9F
:1002A0004F291A08F300F508031D8D297308DD3C5A
:1002B000031D5D290130F4008D297308DE3C031D08
:1002C00064290230F4008D297308CD3C031D6B298D
:1002D0000330F4008D297308CC3C031D72290430CF
:1002E000F4008D297308DF3C031D79290530F400E3
:1002F0008D297308DC3C031D80290630F4008D290C
:100300007308DB3C031D87290730F4008D2973082F
:10031000DA3C031D8D290330F400F40803199729F2
:10032000C83075078400831373088000F50A7508C8
:10033000073C0318A229F5017408043C031DA129F8
:100340004015F4018C128A110A122B28861A1D2AD4
:10035000401F1D2A40130B12FB01C1148316D30149
:10036000D20101300317C100C200C0014008273C80
:10037000031C112A4008053C031CD72942304007C2
:10038000F800FA010318FA0A7808C4007A08C500D0
:10039000343040078400831300084106C600440837
:1003A000840083134518831746088000FB29400802
:1003B000253C031CF4290130400701390319EA29BF
:1003C000031083120313EF0DF00D83160317C301FF
:1003D0000318C30A423040078400831341084306D0
:1003E00080004308C206FB29423040078400831383
:1003F0004108420680000130C106A0304007840059
:10040000831301308000423040078400831380084A
:1004100003190F2AA0304007840083138001C00A0B
:10042000B629FF30831203138F00FA308E001014A8
:10043000411C0613411806178B110B108A110A1262
:100440002B2883164808CC3C031D5D2A4908F00080
:100450004A088312EF0083164B08FC00FF30EB00C4
:10046000EA004C08EA020030031C0130EB02FF30C6
:10047000E500E4004D08E4020030031C0130E50211
:10048000FC30E7005830E6004E08E6070318E70A9C
:100490004F08FF3CEC00FF30ED000030031C013042
:1004A000ED028312401770088316D90083126F087B
:1004B0008316D80083128B15831683128A110A12B1
:1004C000E42B0830F80083160317BF013E08F7003D
:1004D0007708BF06F70CF80B682A831203130C1E6B
:1004E0006F2AFE308316980503173F1C7A2A0313E0
:1004F000181403173E08831203139900080083168B
:100500000317B908031DC72A3808303C031CC72A43
:10051000BB01BA013B083902031CC62A031D942AF9
:1005200038083A020318C62A03103A0DF9003B0DA9
:10053000FA007908103E84008317840A0008BD0081
:1005400084030008BC00BE00831203136122031061
:10055000831603173A0DF9003B0DFA007908103E97
:1005600084008317840A0008BD0084030008BC00CF
:100570003D08BC00BD013C08BE008312031361228C
:1005800083160317BA0A0319BB0A8A2A532BBB0125
:10059000BA01BB08031D022B3A082F3C031C022B97
:1005A00003103A0DF9003B0DFA007908103E840063
:1005B0008317840A0008BD0084030008BC00BE0045
:1005C0008312031361220310831603173A0DF900F7
:1005D0003B0DFA007908103E84008317840A000856
:1005E000BD0084030008BC003D08BC00BD013C0800
:1005F000BE0083120313612283160317BA0A03197C
:10060000BB0AC92ABB013030BA003B083902031CBF
:10061000532B031D0F2B38083A020318532B30308D
:100620003A02BC003B08BD000030031C0130BD0293
:1006300003103C0DF9003D0DFA007908903E84004E
:100640008317840A0008BD0084030008BC00BE00B4
:100650008312031361223030831603173A02BC0061
:100660003B08BD000030031C0130BD0203103C0DEF
:10067000F9003D0DFA007908903E84008317840A42
:100680000008BD0084030008BC003D08BC00BD019B
:100690003C08BE0083120313612283160317BA0AB3
:1006A0000319BB0A052B031349080317BE00831265
:1006B0000313612283164A080317BE008312031333
:1006C00061220800840183131F30830504308316E0
:1006D0009900E6309800D030831298004010401303
:1006E000C0174110C1104111C1114112F401F501AF
:1006F000F601FB01FD018316D301D201D501D4011E
:10070000D701D601FF30E5004D30E400FC30E700B2
:10071000F030E600FF30E900A030E800FF30EB00E9
:10072000C130EA00FF30ED00AF30EC001F149F1421
:100730001F159F1107309C00FF308312A700013066
:10074000A800A900AA00AB01AC01AD01AE01AF0148
:10075000B001B100B200B300B400B501B600B700FB
:10076000B801B900BA01BB00BC01BD01BE00BF01A8
:100770000B1683160C148C1683128B15C0308B0449
:1007800083160113853083129000101021308316D8
:100790008600F03085008312411C861141188615B1
:1007A000C01F0613C01B0617C01F8613C01B861769
:1007B000411C861041188614411C0611411806156B
:1007C000401DF52B4011212A83165808AA3C031D11
:1007D000ED2B5908AA3C0319F32B580FF62B590897
:1007E000AA3C031DF62B8312C11583168312401CED
:1007F000152C4010C01C152C0B12C01083164B0872
:100800002F3C03180E2C0317B90103134B080317D1
:10081000B800831203137F22152C83160317B90126
:100820001830B800831203137F22061B2F2C831667
:10083000D40A0319D50A5508043C03182E2CFF3A94
:10084000031D262C5408DC3C03182E2C8312C01FD9
:100850000613C01B06178316D501D4018312861B0D
:10086000492C8316D60A0319D70A5708003C0318E7
:10087000482CFF3A031D402C5608F43C0318482C22
:100880008312C01F8613C01B86178316D701D6019B
:100890008312E02B6300FF3FFF3FFF3FFF3FFF3F1F
:1008A000FF3FFF3FFF3FFF3FFF3FFF3FFF3FFF3F58
:1008B000FF3FFF3FFF3FFF3FFF3FFF3FFF3FFF3F48
:1008C000FF3FFF3FFF3FFF3FFF3FFF3FFF3FFF3F38
:1008D000FF3FFF3FFF3FFF3FFF3FFF3FFF3FFF3F28
:02400E00723FFF
:08400000FF3FFF3FFF3FFF3FC0
:00000001FF
